{
  "_format": "hh-sol-artifact-1",
  "contractName": "CroakCity",
  "sourceName": "contracts/CroakCity.sol",
  "abi": [
    {
      "inputs": [
        {
          "internalType": "string",
          "name": "name",
          "type": "string"
        },
        {
          "internalType": "string",
          "name": "symbol",
          "type": "string"
        },
        {
          "internalType": "string",
          "name": "baseURI",
          "type": "string"
        }
      ],
      "stateMutability": "nonpayable",
      "type": "constructor"
    },
    {
      "inputs": [
        {
          "internalType": "address",
          "name": "sender",
          "type": "address"
        },
        {
          "internalType": "uint256",
          "name": "tokenId",
          "type": "uint256"
        },
        {
          "internalType": "address",
          "name": "owner",
          "type": "address"
        }
      ],
      "name": "ERC721IncorrectOwner",
      "type": "error"
    },
    {
      "inputs": [
        {
          "internalType": "address",
          "name": "operator",
          "type": "address"
        },
        {
          "internalType": "uint256",
          "name": "tokenId",
          "type": "uint256"
        }
      ],
      "name": "ERC721InsufficientApproval",
      "type": "error"
    },
    {
      "inputs": [
        {
          "internalType": "address",
          "name": "approver",
          "type": "address"
        }
      ],
      "name": "ERC721InvalidApprover",
      "type": "error"
    },
    {
      "inputs": [
        {
          "internalType": "address",
          "name": "operator",
          "type": "address"
        }
      ],
      "name": "ERC721InvalidOperator",
      "type": "error"
    },
    {
      "inputs": [
        {
          "internalType": "address",
          "name": "owner",
          "type": "address"
        }
      ],
      "name": "ERC721InvalidOwner",
      "type": "error"
    },
    {
      "inputs": [
        {
          "internalType": "address",
          "name": "receiver",
          "type": "address"
        }
      ],
      "name": "ERC721InvalidReceiver",
      "type": "error"
    },
    {
      "inputs": [
        {
          "internalType": "address",
          "name": "sender",
          "type": "address"
        }
      ],
      "name": "ERC721InvalidSender",
      "type": "error"
    },
    {
      "inputs": [
        {
          "internalType": "uint256",
          "name": "tokenId",
          "type": "uint256"
        }
      ],
      "name": "ERC721NonexistentToken",
      "type": "error"
    },
    {
      "inputs": [
        {
          "internalType": "address",
          "name": "owner",
          "type": "address"
        }
      ],
      "name": "OwnableInvalidOwner",
      "type": "error"
    },
    {
      "inputs": [
        {
          "internalType": "address",
          "name": "account",
          "type": "address"
        }
      ],
      "name": "OwnableUnauthorizedAccount",
      "type": "error"
    },
    {
      "anonymous": false,
      "inputs": [
        {
          "indexed": true,
          "internalType": "address",
          "name": "owner",
          "type": "address"
        },
        {
          "indexed": true,
          "internalType": "address",
          "name": "approved",
          "type": "address"
        },
        {
          "indexed": true,
          "internalType": "uint256",
          "name": "tokenId",
          "type": "uint256"
        }
      ],
      "name": "Approval",
      "type": "event"
    },
    {
      "anonymous": false,
      "inputs": [
        {
          "indexed": true,
          "internalType": "address",
          "name": "owner",
          "type": "address"
        },
        {
          "indexed": true,
          "internalType": "address",
          "name": "operator",
          "type": "address"
        },
        {
          "indexed": false,
          "internalType": "bool",
          "name": "approved",
          "type": "bool"
        }
      ],
      "name": "ApprovalForAll",
      "type": "event"
    },
    {
      "anonymous": false,
      "inputs": [
        {
          "indexed": true,
          "internalType": "address",
          "name": "previousOwner",
          "type": "address"
        },
        {
          "indexed": true,
          "internalType": "address",
          "name": "newOwner",
          "type": "address"
        }
      ],
      "name": "OwnershipTransferred",
      "type": "event"
    },
    {
      "anonymous": false,
      "inputs": [
        {
          "indexed": true,
          "internalType": "address",
          "name": "from",
          "type": "address"
        },
        {
          "indexed": true,
          "internalType": "address",
          "name": "to",
          "type": "address"
        },
        {
          "indexed": true,
          "internalType": "uint256",
          "name": "tokenId",
          "type": "uint256"
        }
      ],
      "name": "Transfer",
      "type": "event"
    },
    {
      "inputs": [],
      "name": "MAX_PER_WALLET",
      "outputs": [
        {
          "internalType": "uint256",
          "name": "",
          "type": "uint256"
        }
      ],
      "stateMutability": "view",
      "type": "function"
    },
    {
      "inputs": [],
      "name": "MAX_SUPPLY",
      "outputs": [
        {
          "internalType": "uint256",
          "name": "",
          "type": "uint256"
        }
      ],
      "stateMutability": "view",
      "type": "function"
    },
    {
      "inputs": [],
      "name": "MINT_PRICE",
      "outputs": [
        {
          "internalType": "uint256",
          "name": "",
          "type": "uint256"
        }
      ],
      "stateMutability": "view",
      "type": "function"
    },
    {
      "inputs": [],
      "name": "TREASURY",
      "outputs": [
        {
          "internalType": "address",
          "name": "",
          "type": "address"
        }
      ],
      "stateMutability": "view",
      "type": "function"
    },
    {
      "inputs": [
        {
          "internalType": "address",
          "name": "to",
          "type": "address"
        },
        {
          "internalType": "uint256",
          "name": "tokenId",
          "type": "uint256"
        }
      ],
      "name": "approve",
      "outputs": [],
      "stateMutability": "nonpayable",
      "type": "function"
    },
    {
      "inputs": [
        {
          "internalType": "address",
          "name": "owner",
          "type": "address"
        }
      ],
      "name": "balanceOf",
      "outputs": [
        {
          "internalType": "uint256",
          "name": "",
          "type": "uint256"
        }
      ],
      "stateMutability": "view",
      "type": "function"
    },
    {
      "inputs": [
        {
          "internalType": "uint256",
          "name": "tokenId",
          "type": "uint256"
        }
      ],
      "name": "getApproved",
      "outputs": [
        {
          "internalType": "address",
          "name": "",
          "type": "address"
        }
      ],
      "stateMutability": "view",
      "type": "function"
    },
    {
      "inputs": [
        {
          "internalType": "address",
          "name": "wallet",
          "type": "address"
        }
      ],
      "name": "hasFreeMint",
      "outputs": [
        {
          "internalType": "bool",
          "name": "",
          "type": "bool"
        }
      ],
      "stateMutability": "view",
      "type": "function"
    },
    {
      "inputs": [
        {
          "internalType": "address",
          "name": "",
          "type": "address"
        }
      ],
      "name": "hasUsedFreeMint",
      "outputs": [
        {
          "internalType": "bool",
          "name": "",
          "type": "bool"
        }
      ],
      "stateMutability": "view",
      "type": "function"
    },
    {
      "inputs": [
        {
          "internalType": "address",
          "name": "owner",
          "type": "address"
        },
        {
          "internalType": "address",
          "name": "operator",
          "type": "address"
        }
      ],
      "name": "isApprovedForAll",
      "outputs": [
        {
          "internalType": "bool",
          "name": "",
          "type": "bool"
        }
      ],
      "stateMutability": "view",
      "type": "function"
    },
    {
      "inputs": [],
      "name": "maxSupply",
      "outputs": [
        {
          "internalType": "uint256",
          "name": "",
          "type": "uint256"
        }
      ],
      "stateMutability": "pure",
      "type": "function"
    },
    {
      "inputs": [],
      "name": "mint",
      "outputs": [],
      "stateMutability": "payable",
      "type": "function"
    },
    {
      "inputs": [
        {
          "internalType": "address",
          "name": "",
          "type": "address"
        }
      ],
      "name": "mintsPerWallet",
      "outputs": [
        {
          "internalType": "uint256",
          "name": "",
          "type": "uint256"
        }
      ],
      "stateMutability": "view",
      "type": "function"
    },
    {
      "inputs": [],
      "name": "name",
      "outputs": [
        {
          "internalType": "string",
          "name": "",
          "type": "string"
        }
      ],
      "stateMutability": "view",
      "type": "function"
    },
    {
      "inputs": [],
      "name": "owner",
      "outputs": [
        {
          "internalType": "address",
          "name": "",
          "type": "address"
        }
      ],
      "stateMutability": "view",
      "type": "function"
    },
    {
      "inputs": [
        {
          "internalType": "uint256",
          "name": "tokenId",
          "type": "uint256"
        }
      ],
      "name": "ownerOf",
      "outputs": [
        {
          "internalType": "address",
          "name": "",
          "type": "address"
        }
      ],
      "stateMutability": "view",
      "type": "function"
    },
    {
      "inputs": [],
      "name": "renounceOwnership",
      "outputs": [],
      "stateMutability": "nonpayable",
      "type": "function"
    },
    {
      "inputs": [
        {
          "internalType": "address",
          "name": "from",
          "type": "address"
        },
        {
          "internalType": "address",
          "name": "to",
          "type": "address"
        },
        {
          "internalType": "uint256",
          "name": "tokenId",
          "type": "uint256"
        }
      ],
      "name": "safeTransferFrom",
      "outputs": [],
      "stateMutability": "nonpayable",
      "type": "function"
    },
    {
      "inputs": [
        {
          "internalType": "address",
          "name": "from",
          "type": "address"
        },
        {
          "internalType": "address",
          "name": "to",
          "type": "address"
        },
        {
          "internalType": "uint256",
          "name": "tokenId",
          "type": "uint256"
        },
        {
          "internalType": "bytes",
          "name": "data",
          "type": "bytes"
        }
      ],
      "name": "safeTransferFrom",
      "outputs": [],
      "stateMutability": "nonpayable",
      "type": "function"
    },
    {
      "inputs": [
        {
          "internalType": "address",
          "name": "operator",
          "type": "address"
        },
        {
          "internalType": "bool",
          "name": "approved",
          "type": "bool"
        }
      ],
      "name": "setApprovalForAll",
      "outputs": [],
      "stateMutability": "nonpayable",
      "type": "function"
    },
    {
      "inputs": [
        {
          "internalType": "string",
          "name": "baseURI",
          "type": "string"
        }
      ],
      "name": "setBaseURI",
      "outputs": [],
      "stateMutability": "nonpayable",
      "type": "function"
    },
    {
      "inputs": [
        {
          "internalType": "bytes4",
          "name": "interfaceId",
          "type": "bytes4"
        }
      ],
      "name": "supportsInterface",
      "outputs": [
        {
          "internalType": "bool",
          "name": "",
          "type": "bool"
        }
      ],
      "stateMutability": "view",
      "type": "function"
    },
    {
      "inputs": [],
      "name": "symbol",
      "outputs": [
        {
          "internalType": "string",
          "name": "",
          "type": "string"
        }
      ],
      "stateMutability": "view",
      "type": "function"
    },
    {
      "inputs": [
        {
          "internalType": "uint256",
          "name": "tokenId",
          "type": "uint256"
        }
      ],
      "name": "tokenURI",
      "outputs": [
        {
          "internalType": "string",
          "name": "",
          "type": "string"
        }
      ],
      "stateMutability": "view",
      "type": "function"
    },
    {
      "inputs": [],
      "name": "totalSupply",
      "outputs": [
        {
          "internalType": "uint256",
          "name": "",
          "type": "uint256"
        }
      ],
      "stateMutability": "view",
      "type": "function"
    },
    {
      "inputs": [
        {
          "internalType": "address",
          "name": "from",
          "type": "address"
        },
        {
          "internalType": "address",
          "name": "to",
          "type": "address"
        },
        {
          "internalType": "uint256",
          "name": "tokenId",
          "type": "uint256"
        }
      ],
      "name": "transferFrom",
      "outputs": [],
      "stateMutability": "nonpayable",
      "type": "function"
    },
    {
      "inputs": [
        {
          "internalType": "address",
          "name": "newOwner",
          "type": "address"
        }
      ],
      "name": "transferOwnership",
      "outputs": [],
      "stateMutability": "nonpayable",
      "type": "function"
    },
    {
      "inputs": [],
      "name": "withdrawBalance",
      "outputs": [],
      "stateMutability": "nonpayable",
      "type": "function"
    }
  ],
  "bytecode": "0x60806040523480156200001157600080fd5b5060405162001bc938038062001bc98339810160408190526200003491620001c1565b3383836000620000458382620002e1565b506001620000548282620002e1565b5050506001600160a01b0381166200008657604051631e4fbdf760e01b81526000600482015260240160405180910390fd5b6200009181620000aa565b506007620000a08282620002e1565b50505050620003ad565b600680546001600160a01b038381166001600160a01b0319831681179093556040519116919082907f8be0079c531659141344cd1fd0a4f28419497f9722a3daafe3b4186f6b6457e090600090a35050565b634e487b7160e01b600052604160045260246000fd5b600082601f8301126200012457600080fd5b81516001600160401b0380821115620001415762000141620000fc565b604051601f8301601f19908116603f011681019082821181831017156200016c576200016c620000fc565b816040528381526020925086838588010111156200018957600080fd5b600091505b83821015620001ad57858201830151818301840152908201906200018e565b600093810190920192909252949350505050565b600080600060608486031215620001d757600080fd5b83516001600160401b0380821115620001ef57600080fd5b620001fd8783880162000112565b945060208601519150808211156200021457600080fd5b620002228783880162000112565b935060408601519150808211156200023957600080fd5b50620002488682870162000112565b9150509250925092565b600181811c908216806200026757607f821691505b6020821081036200028857634e487b7160e01b600052602260045260246000fd5b50919050565b601f821115620002dc57600081815260208120601f850160051c81016020861015620002b75750805b601f850160051c820191505b81811015620002d857828155600101620002c3565b5050505b505050565b81516001600160401b03811115620002fd57620002fd620000fc565b62000315816200030e845462000252565b846200028e565b602080601f8311600181146200034d5760008415620003345750858301515b600019600386901b1c1916600185901b178555620002d8565b600085815260208120601f198616915b828110156200037e578886015182559484019460019091019084016200035d565b50858210156200039d5787850151600019600388901b60f8161c191681555b5050505050600190811b01905550565b61180c80620003bd6000396000f3fe6080604052600436106101b75760003560e01c80635fd8c710116100ec578063b88d4fde1161008a578063d5abeb0111610064578063d5abeb01146104c0578063d5cde1f2146104d5578063e985e9c51461050f578063f2fde38b1461052f57600080fd5b8063b88d4fde14610464578063c002d23d14610484578063c87b56dd146104a057600080fd5b8063715018a6116100c6578063715018a6146103fc5780638da5cb5b1461041157806395d89b411461042f578063a22cb4651461044457600080fd5b80635fd8c710146103a75780636352211e146103bc57806370a08231146103dc57600080fd5b806323b872dd1161015957806342842e0e1161013357806342842e0e1461030a578063435b42461461032a5780634d0df5fc1461035a57806355f804b31461038757600080fd5b806323b872dd146102ad5780632d2c5565146102cd57806332cb6b0c146102f457600080fd5b8063095ea7b311610195578063095ea7b31461024b5780630f2cdd6c1461026d5780631249c58b1461029057806318160ddd1461029857600080fd5b806301ffc9a7146101bc57806306fdde03146101f1578063081812fc14610213575b600080fd5b3480156101c857600080fd5b506101dc6101d73660046112f0565b61054f565b60405190151581526020015b60405180910390f35b3480156101fd57600080fd5b506102066105a1565b6040516101e8919061135d565b34801561021f57600080fd5b5061023361022e366004611370565b610633565b6040516001600160a01b0390911681526020016101e8565b34801561025757600080fd5b5061026b6102663660046113a5565b61065c565b005b34801561027957600080fd5b50610282601481565b6040519081526020016101e8565b61026b61066b565b3480156102a457600080fd5b50600854610282565b3480156102b957600080fd5b5061026b6102c83660046113cf565b6108a0565b3480156102d957600080fd5b50610233721eb937e54b93eef35e765c5074e8e643d3887e81565b34801561030057600080fd5b506102826101a481565b34801561031657600080fd5b5061026b6103253660046113cf565b61092b565b34801561033657600080fd5b506101dc61034536600461140b565b60096020526000908152604090205460ff1681565b34801561036657600080fd5b5061028261037536600461140b565b600a6020526000908152604090205481565b34801561039357600080fd5b5061026b6103a23660046114b2565b61094b565b3480156103b357600080fd5b5061026b61095f565b3480156103c857600080fd5b506102336103d7366004611370565b610a06565b3480156103e857600080fd5b506102826103f736600461140b565b610a11565b34801561040857600080fd5b5061026b610a59565b34801561041d57600080fd5b506006546001600160a01b0316610233565b34801561043b57600080fd5b50610206610a6b565b34801561045057600080fd5b5061026b61045f3660046114fb565b610a7a565b34801561047057600080fd5b5061026b61047f366004611537565b610a85565b34801561049057600080fd5b50610282670de0b6b3a764000081565b3480156104ac57600080fd5b506102066104bb366004611370565b610a9d565b3480156104cc57600080fd5b506101a4610282565b3480156104e157600080fd5b506101dc6104f036600461140b565b6001600160a01b031660009081526009602052604090205460ff161590565b34801561051b57600080fd5b506101dc61052a3660046115b3565b610b05565b34801561053b57600080fd5b5061026b61054a36600461140b565b610b33565b60006001600160e01b031982166380ac58cd60e01b148061058057506001600160e01b03198216635b5e139f60e01b145b8061059b57506301ffc9a760e01b6001600160e01b03198316145b92915050565b6060600080546105b0906115e6565b80601f01602080910402602001604051908101604052809291908181526020018280546105dc906115e6565b80156106295780601f106105fe57610100808354040283529160200191610629565b820191906000526020600020905b81548152906001019060200180831161060c57829003601f168201915b5050505050905090565b600061063e82610b71565b506000828152600460205260409020546001600160a01b031661059b565b610667828233610baa565b5050565b6101a4600854106106c35760405162461bcd60e51b815260206004820152601b60248201527f416c6c20746f6b656e732068617665206265656e206d696e746564000000000060448201526064015b60405180910390fd5b336000908152600a60205260409020546014116107225760405162461bcd60e51b815260206004820152601c60248201527f4d6178206d696e7473207065722077616c6c657420726561636865640000000060448201526064016106ba565b3360009081526009602052604090205460ff1661075857336000908152600960205260409020805460ff1916600117905561085d565b670de0b6b3a76400003410156107b05760405162461bcd60e51b815260206004820152601860248201527f496e636f7272656374207061796d656e7420616d6f756e74000000000000000060448201526064016106ba565b604051600090721eb937e54b93eef35e765c5074e8e643d3887e9034908381818185875af1925050503d8060008114610805576040519150601f19603f3d011682016040523d82523d6000602084013e61080a565b606091505b505090508061085b5760405162461bcd60e51b815260206004820152601760248201527f5061796d656e74207472616e73666572206661696c656400000000000000000060448201526064016106ba565b505b6008805490600061086d83611620565b9091555050336000908152600a6020526040812080549161088d83611620565b919050555061089e33600854610bb7565b565b6001600160a01b0382166108ca57604051633250574960e11b8152600060048201526024016106ba565b60006108d7838333610bd1565b9050836001600160a01b0316816001600160a01b031614610925576040516364283d7b60e01b81526001600160a01b03808616600483015260248201849052821660448201526064016106ba565b50505050565b61094683838360405180602001604052806000815250610a85565b505050565b610953610cca565b6007610667828261168d565b610967610cca565b6040514790600090721eb937e54b93eef35e765c5074e8e643d3887e9083908381818185875af1925050503d80600081146109be576040519150601f19603f3d011682016040523d82523d6000602084013e6109c3565b606091505b50509050806106675760405162461bcd60e51b815260206004820152600f60248201526e151c985b9cd9995c8819985a5b1959608a1b60448201526064016106ba565b600061059b82610b71565b60006001600160a01b038216610a3d576040516322718ad960e21b8152600060048201526024016106ba565b506001600160a01b031660009081526003602052604090205490565b610a61610cca565b61089e6000610cf7565b6060600180546105b0906115e6565b610667338383610d49565b610a908484846108a0565b6109253385858585610de8565b6060610aa882610b71565b506000610ab3610f13565b90506000815111610ad35760405180602001604052806000815250610afe565b80610add84610f22565b604051602001610aee92919061174d565b6040516020818303038152906040525b9392505050565b6001600160a01b03918216600090815260056020908152604080832093909416825291909152205460ff1690565b610b3b610cca565b6001600160a01b038116610b6557604051631e4fbdf760e01b8152600060048201526024016106ba565b610b6e81610cf7565b50565b6000818152600260205260408120546001600160a01b03168061059b57604051637e27328960e01b8152600481018490526024016106ba565b6109468383836001610fb5565b6106678282604051806020016040528060008152506110bb565b6000828152600260205260408120546001600160a01b0390811690831615610bfe57610bfe8184866110d3565b6001600160a01b03811615610c3c57610c1b600085600080610fb5565b6001600160a01b038116600090815260036020526040902080546000190190555b6001600160a01b03851615610c6b576001600160a01b0385166000908152600360205260409020805460010190555b60008481526002602052604080822080546001600160a01b0319166001600160a01b0389811691821790925591518793918516917fddf252ad1be2c89b69c2b068fc378daa952ba7f163c4a11628f55a4df523b3ef91a4949350505050565b6006546001600160a01b0316331461089e5760405163118cdaa760e01b81523360048201526024016106ba565b600680546001600160a01b038381166001600160a01b0319831681179093556040519116919082907f8be0079c531659141344cd1fd0a4f28419497f9722a3daafe3b4186f6b6457e090600090a35050565b6001600160a01b038216610d7b57604051630b61174360e31b81526001600160a01b03831660048201526024016106ba565b6001600160a01b03838116600081815260056020908152604080832094871680845294825291829020805460ff191686151590811790915591519182527f17307eab39ab6107e8899845ad3d59bd9653f200f220920489ca2b5937696c31910160405180910390a3505050565b6001600160a01b0383163b15610f0c57604051630a85bd0160e11b81526001600160a01b0384169063150b7a0290610e2a90889088908790879060040161177c565b6020604051808303816000875af1925050508015610e65575060408051601f3d908101601f19168201909252610e62918101906117b9565b60015b610ece573d808015610e93576040519150601f19603f3d011682016040523d82523d6000602084013e610e98565b606091505b508051600003610ec657604051633250574960e11b81526001600160a01b03851660048201526024016106ba565b805181602001fd5b6001600160e01b03198116630a85bd0160e11b14610f0a57604051633250574960e11b81526001600160a01b03851660048201526024016106ba565b505b5050505050565b6060600780546105b0906115e6565b60606000610f2f83611137565b600101905060008167ffffffffffffffff811115610f4f57610f4f611426565b6040519080825280601f01601f191660200182016040528015610f79576020820181803683370190505b5090508181016020015b600019016f181899199a1a9b1b9c1cb0b131b232b360811b600a86061a8153600a8504945084610f8357509392505050565b8080610fc957506001600160a01b03821615155b1561108b576000610fd984610b71565b90506001600160a01b038316158015906110055750826001600160a01b0316816001600160a01b031614155b801561101857506110168184610b05565b155b156110415760405163a9fbf51f60e01b81526001600160a01b03841660048201526024016106ba565b81156110895783856001600160a01b0316826001600160a01b03167f8c5be1e5ebec7d5bd14f71427d1e84f3dd0314c0f7b2291e5b200ac8c7c3b92560405160405180910390a45b505b5050600090815260046020526040902080546001600160a01b0319166001600160a01b0392909216919091179055565b6110c5838361120f565b610946336000858585610de8565b6110de838383611274565b610946576001600160a01b03831661110c57604051637e27328960e01b8152600481018290526024016106ba565b60405163177e802f60e01b81526001600160a01b0383166004820152602481018290526044016106ba565b60008072184f03e93ff9f4daa797ed6e38ed64bf6a1f0160401b83106111765772184f03e93ff9f4daa797ed6e38ed64bf6a1f0160401b830492506040015b6d04ee2d6d415b85acef810000000083106111a2576d04ee2d6d415b85acef8100000000830492506020015b662386f26fc1000083106111c057662386f26fc10000830492506010015b6305f5e10083106111d8576305f5e100830492506008015b61271083106111ec57612710830492506004015b606483106111fe576064830492506002015b600a831061059b5760010192915050565b6001600160a01b03821661123957604051633250574960e11b8152600060048201526024016106ba565b600061124783836000610bd1565b90506001600160a01b03811615610946576040516339e3563760e11b8152600060048201526024016106ba565b60006001600160a01b038316158015906112d25750826001600160a01b0316846001600160a01b031614806112ae57506112ae8484610b05565b806112d257506000828152600460205260409020546001600160a01b038481169116145b949350505050565b6001600160e01b031981168114610b6e57600080fd5b60006020828403121561130257600080fd5b8135610afe816112da565b60005b83811015611328578181015183820152602001611310565b50506000910152565b6000815180845261134981602086016020860161130d565b601f01601f19169290920160200192915050565b602081526000610afe6020830184611331565b60006020828403121561138257600080fd5b5035919050565b80356001600160a01b03811681146113a057600080fd5b919050565b600080604083850312156113b857600080fd5b6113c183611389565b946020939093013593505050565b6000806000606084860312156113e457600080fd5b6113ed84611389565b92506113fb60208501611389565b9150604084013590509250925092565b60006020828403121561141d57600080fd5b610afe82611389565b634e487b7160e01b600052604160045260246000fd5b600067ffffffffffffffff8084111561145757611457611426565b604051601f8501601f19908116603f0116810190828211818310171561147f5761147f611426565b8160405280935085815286868601111561149857600080fd5b858560208301376000602087830101525050509392505050565b6000602082840312156114c457600080fd5b813567ffffffffffffffff8111156114db57600080fd5b8201601f810184136114ec57600080fd5b6112d28482356020840161143c565b6000806040838503121561150e57600080fd5b61151783611389565b91506020830135801515811461152c57600080fd5b809150509250929050565b6000806000806080858703121561154d57600080fd5b61155685611389565b935061156460208601611389565b925060408501359150606085013567ffffffffffffffff81111561158757600080fd5b8501601f8101871361159857600080fd5b6115a78782356020840161143c565b91505092959194509250565b600080604083850312156115c657600080fd5b6115cf83611389565b91506115dd60208401611389565b90509250929050565b600181811c908216806115fa57607f821691505b60208210810361161a57634e487b7160e01b600052602260045260246000fd5b50919050565b60006001820161164057634e487b7160e01b600052601160045260246000fd5b5060010190565b601f82111561094657600081815260208120601f850160051c8101602086101561166e5750805b601f850160051c820191505b81811015610f0a5782815560010161167a565b815167ffffffffffffffff8111156116a7576116a7611426565b6116bb816116b584546115e6565b84611647565b602080601f8311600181146116f057600084156116d85750858301515b600019600386901b1c1916600185901b178555610f0a565b600085815260208120601f198616915b8281101561171f57888601518255948401946001909101908401611700565b508582101561173d5787850151600019600388901b60f8161c191681555b5050505050600190811b01905550565b6000835161175f81846020880161130d565b83519083019061177381836020880161130d565b01949350505050565b6001600160a01b03858116825284166020820152604081018390526080606082018190526000906117af90830184611331565b9695505050505050565b6000602082840312156117cb57600080fd5b8151610afe816112da56fea26469706673582212208c2d292b78ce3793180be963ea12482e04427f590a1e63b7b9ed2a497daa9a6164736f6c63430008140033",
  "linkReferences": {},
  "deployedLinkReferences": {}
}